{
  "_format": "hh-sol-artifact-1",
  "contractName": "WavePortal",
  "sourceName": "contracts/WavePortal.sol",
  "abi": [
    {
      "inputs": [],
      "stateMutability": "payable",
      "type": "constructor"
    },
    {
      "anonymous": false,
      "inputs": [
        {
          "indexed": true,
          "internalType": "address",
          "name": "from",
          "type": "address"
        },
        {
          "indexed": false,
          "internalType": "uint256",
          "name": "timestamp",
          "type": "uint256"
        },
        {
          "indexed": false,
          "internalType": "string",
          "name": "message",
          "type": "string"
        }
      ],
      "name": "NewWave",
      "type": "event"
    },
    {
      "inputs": [],
      "name": "getAllWaves",
      "outputs": [
        {
          "components": [
            {
              "internalType": "address",
              "name": "waver",
              "type": "address"
            },
            {
              "internalType": "string",
              "name": "message",
              "type": "string"
            },
            {
              "internalType": "uint256",
              "name": "timestamp",
              "type": "uint256"
            }
          ],
          "internalType": "struct WavePortal.Wave[]",
          "name": "",
          "type": "tuple[]"
        }
      ],
      "stateMutability": "view",
      "type": "function"
    },
    {
      "inputs": [],
      "name": "getTotalWaves",
      "outputs": [
        {
          "internalType": "uint256",
          "name": "",
          "type": "uint256"
        }
      ],
      "stateMutability": "view",
      "type": "function"
    },
    {
      "inputs": [
        {
          "internalType": "address",
          "name": "",
          "type": "address"
        }
      ],
      "name": "lastWavedAt",
      "outputs": [
        {
          "internalType": "uint256",
          "name": "",
          "type": "uint256"
        }
      ],
      "stateMutability": "view",
      "type": "function"
    },
    {
      "inputs": [
        {
          "internalType": "string",
          "name": "_message",
          "type": "string"
        }
      ],
      "name": "wave",
      "outputs": [],
      "stateMutability": "nonpayable",
      "type": "function"
    }
  ],
  "bytecode": "0x60806040526200004f6040518060400160405280601981526020017f4920414d20534d41525420434f4e54524143542e20504f472e000000000000008152506200007760201b620006821760201c565b606444426200005f91906200017c565b6200006b9190620001e6565b600181905550620002dc565b62000117816040516024016200008e9190620002b8565b6040516020818303038152906040527f41304fac000000000000000000000000000000000000000000000000000000007bffffffffffffffffffffffffffffffffffffffffffffffffffffffff19166020820180517bffffffffffffffffffffffffffffffffffffffffffffffffffffffff83818316178352505050506200011a60201b60201c565b50565b60008151905060006a636f6e736f6c652e6c6f679050602083016000808483855afa5050505050565b6000819050919050565b7f4e487b7100000000000000000000000000000000000000000000000000000000600052601160045260246000fd5b6000620001898262000143565b9150620001968362000143565b9250828201905080821115620001b157620001b06200014d565b5b92915050565b7f4e487b7100000000000000000000000000000000000000000000000000000000600052601260045260246000fd5b6000620001f38262000143565b9150620002008362000143565b925082620002135762000212620001b7565b5b828206905092915050565b600081519050919050565b600082825260208201905092915050565b60005b838110156200025a5780820151818401526020810190506200023d565b60008484015250505050565b6000601f19601f8301169050919050565b600062000284826200021e565b62000290818562000229565b9350620002a28185602086016200023a565b620002ad8162000266565b840191505092915050565b60006020820190508181036000830152620002d4818462000277565b905092915050565b61144b80620002ec6000396000f3fe608060405234801561001057600080fd5b506004361061004c5760003560e01c8063449d46c0146100515780639a2cdc081461006d578063a42a46631461008b578063bd43a908146100bb575b600080fd5b61006b60048036038101906100669190610a75565b6100d9565b005b6100756104ce565b6040516100829190610ad7565b60405180910390f35b6100a560048036038101906100a09190610b50565b610519565b6040516100b29190610ad7565b60405180910390f35b6100c3610531565b6040516100d09190610d2c565b60405180910390f35b42610384600360003373ffffffffffffffffffffffffffffffffffffffff1673ffffffffffffffffffffffffffffffffffffffff168152602001908152602001600020546101279190610d7d565b10610167576040517f08c379a000000000000000000000000000000000000000000000000000000000815260040161015e90610e0e565b60405180910390fd5b42600360003373ffffffffffffffffffffffffffffffffffffffff1673ffffffffffffffffffffffffffffffffffffffff1681526020019081526020016000208190555060016000808282546101bd9190610d7d565b925050819055506102046040518060400160405280601681526020017f257320776176656420772f206d65737361676520257300000000000000000000815250338361071b565b600260405180606001604052803373ffffffffffffffffffffffffffffffffffffffff16815260200183815260200142815250908060018154018082558091505060019003906000526020600020906003020160009091909190915060008201518160000160006101000a81548173ffffffffffffffffffffffffffffffffffffffff021916908373ffffffffffffffffffffffffffffffffffffffff16021790555060208201518160010190816102bc919061103a565b50604082015181600201555050606460015442446102da9190610d7d565b6102e49190610d7d565b6102ee919061113b565b6001819055506103356040518060400160405280601681526020017f52616e646f6d20232067656e6572617465643a202564000000000000000000008152506001546107ba565b60326001541161047b5761037e6040518060400160405280600781526020017f257320776f6e210000000000000000000000000000000000000000000000000081525033610856565b6000655af3107a40009050478111156103cc576040517f08c379a00000000000000000000000000000000000000000000000000000000081526004016103c3906111de565b60405180910390fd5b60003373ffffffffffffffffffffffffffffffffffffffff16826040516103f29061122f565b60006040518083038185875af1925050503d806000811461042f576040519150601f19603f3d011682016040523d82523d6000602084013e610434565b606091505b5050905080610478576040517f08c379a000000000000000000000000000000000000000000000000000000000815260040161046f906112b6565b60405180910390fd5b50505b3373ffffffffffffffffffffffffffffffffffffffff167f5f7e16dc676677766a70e9c5628aa6c54ddb8b6e5188e2ae1e1f17f1ffbea71642836040516104c392919061130f565b60405180910390a250565b60006105116040518060400160405280601781526020017f5765206861766520256420746f74616c207761766573210000000000000000008152506000546107ba565b600054905090565b60036020528060005260406000206000915090505481565b60606002805480602002602001604051908101604052809291908181526020016000905b8282101561067957838290600052602060002090600302016040518060600160405290816000820160009054906101000a900473ffffffffffffffffffffffffffffffffffffffff1673ffffffffffffffffffffffffffffffffffffffff1673ffffffffffffffffffffffffffffffffffffffff1681526020016001820180546105de90610e5d565b80601f016020809104026020016040519081016040528092919081815260200182805461060a90610e5d565b80156106575780601f1061062c57610100808354040283529160200191610657565b820191906000526020600020905b81548152906001019060200180831161063a57829003601f168201915b5050505050815260200160028201548152505081526020019060010190610555565b50505050905090565b61071881604051602401610696919061133f565b6040516020818303038152906040527f41304fac000000000000000000000000000000000000000000000000000000007bffffffffffffffffffffffffffffffffffffffffffffffffffffffff19166020820180517bffffffffffffffffffffffffffffffffffffffffffffffffffffffff83818316178352505050506108f2565b50565b6107b583838360405160240161073393929190611370565b6040516020818303038152906040527fe0e9ad4f000000000000000000000000000000000000000000000000000000007bffffffffffffffffffffffffffffffffffffffffffffffffffffffff19166020820180517bffffffffffffffffffffffffffffffffffffffffffffffffffffffff83818316178352505050506108f2565b505050565b61085282826040516024016107d09291906113b5565b6040516020818303038152906040527fb60e72cc000000000000000000000000000000000000000000000000000000007bffffffffffffffffffffffffffffffffffffffffffffffffffffffff19166020820180517bffffffffffffffffffffffffffffffffffffffffffffffffffffffff83818316178352505050506108f2565b5050565b6108ee828260405160240161086c9291906113e5565b6040516020818303038152906040527f319af333000000000000000000000000000000000000000000000000000000007bffffffffffffffffffffffffffffffffffffffffffffffffffffffff19166020820180517bffffffffffffffffffffffffffffffffffffffffffffffffffffffff83818316178352505050506108f2565b5050565b60008151905060006a636f6e736f6c652e6c6f679050602083016000808483855afa5050505050565b6000604051905090565b600080fd5b600080fd5b600080fd5b600080fd5b6000601f19601f8301169050919050565b7f4e487b7100000000000000000000000000000000000000000000000000000000600052604160045260246000fd5b61098282610939565b810181811067ffffffffffffffff821117156109a1576109a061094a565b5b80604052505050565b60006109b461091b565b90506109c08282610979565b919050565b600067ffffffffffffffff8211156109e0576109df61094a565b5b6109e982610939565b9050602081019050919050565b82818337600083830152505050565b6000610a18610a13846109c5565b6109aa565b905082815260208101848484011115610a3457610a33610934565b5b610a3f8482856109f6565b509392505050565b600082601f830112610a5c57610a5b61092f565b5b8135610a6c848260208601610a05565b91505092915050565b600060208284031215610a8b57610a8a610925565b5b600082013567ffffffffffffffff811115610aa957610aa861092a565b5b610ab584828501610a47565b91505092915050565b6000819050919050565b610ad181610abe565b82525050565b6000602082019050610aec6000830184610ac8565b92915050565b600073ffffffffffffffffffffffffffffffffffffffff82169050919050565b6000610b1d82610af2565b9050919050565b610b2d81610b12565b8114610b3857600080fd5b50565b600081359050610b4a81610b24565b92915050565b600060208284031215610b6657610b65610925565b5b6000610b7484828501610b3b565b91505092915050565b600081519050919050565b600082825260208201905092915050565b6000819050602082019050919050565b610bb281610b12565b82525050565b600081519050919050565b600082825260208201905092915050565b60005b83811015610bf2578082015181840152602081019050610bd7565b60008484015250505050565b6000610c0982610bb8565b610c138185610bc3565b9350610c23818560208601610bd4565b610c2c81610939565b840191505092915050565b610c4081610abe565b82525050565b6000606083016000830151610c5e6000860182610ba9565b5060208301518482036020860152610c768282610bfe565b9150506040830151610c8b6040860182610c37565b508091505092915050565b6000610ca28383610c46565b905092915050565b6000602082019050919050565b6000610cc282610b7d565b610ccc8185610b88565b935083602082028501610cde85610b99565b8060005b85811015610d1a5784840389528151610cfb8582610c96565b9450610d0683610caa565b925060208a01995050600181019050610ce2565b50829750879550505050505092915050565b60006020820190508181036000830152610d468184610cb7565b905092915050565b7f4e487b7100000000000000000000000000000000000000000000000000000000600052601160045260246000fd5b6000610d8882610abe565b9150610d9383610abe565b9250828201905080821115610dab57610daa610d4e565b5b92915050565b600082825260208201905092915050565b7f576169742031356d000000000000000000000000000000000000000000000000600082015250565b6000610df8600883610db1565b9150610e0382610dc2565b602082019050919050565b60006020820190508181036000830152610e2781610deb565b9050919050565b7f4e487b7100000000000000000000000000000000000000000000000000000000600052602260045260246000fd5b60006002820490506001821680610e7557607f821691505b602082108103610e8857610e87610e2e565b5b50919050565b60008190508160005260206000209050919050565b60006020601f8301049050919050565b600082821b905092915050565b600060088302610ef07fffffffffffffffffffffffffffffffffffffffffffffffffffffffffffffffff82610eb3565b610efa8683610eb3565b95508019841693508086168417925050509392505050565b6000819050919050565b6000610f37610f32610f2d84610abe565b610f12565b610abe565b9050919050565b6000819050919050565b610f5183610f1c565b610f65610f5d82610f3e565b848454610ec0565b825550505050565b600090565b610f7a610f6d565b610f85818484610f48565b505050565b5b81811015610fa957610f9e600082610f72565b600181019050610f8b565b5050565b601f821115610fee57610fbf81610e8e565b610fc884610ea3565b81016020851015610fd7578190505b610feb610fe385610ea3565b830182610f8a565b50505b505050565b600082821c905092915050565b600061101160001984600802610ff3565b1980831691505092915050565b600061102a8383611000565b9150826002028217905092915050565b61104382610bb8565b67ffffffffffffffff81111561105c5761105b61094a565b5b6110668254610e5d565b611071828285610fad565b600060209050601f8311600181146110a45760008415611092578287015190505b61109c858261101e565b865550611104565b601f1984166110b286610e8e565b60005b828110156110da578489015182556001820191506020850194506020810190506110b5565b868310156110f757848901516110f3601f891682611000565b8355505b6001600288020188555050505b505050505050565b7f4e487b7100000000000000000000000000000000000000000000000000000000600052601260045260246000fd5b600061114682610abe565b915061115183610abe565b9250826111615761116061110c565b5b828206905092915050565b7f547279696e6720746f207769746864726177206d6f7265206d6f6e657920746860008201527f616e2074686520636f6e7472616374206861732e000000000000000000000000602082015250565b60006111c8603483610db1565b91506111d38261116c565b604082019050919050565b600060208201905081810360008301526111f7816111bb565b9050919050565b600081905092915050565b50565b60006112196000836111fe565b915061122482611209565b600082019050919050565b600061123a8261120c565b9150819050919050565b7f4661696c656420746f207769746864726177206d6f6e65792066726f6d20636f60008201527f6e74726163742e00000000000000000000000000000000000000000000000000602082015250565b60006112a0602783610db1565b91506112ab82611244565b604082019050919050565b600060208201905081810360008301526112cf81611293565b9050919050565b60006112e182610bb8565b6112eb8185610db1565b93506112fb818560208601610bd4565b61130481610939565b840191505092915050565b60006040820190506113246000830185610ac8565b818103602083015261133681846112d6565b90509392505050565b6000602082019050818103600083015261135981846112d6565b905092915050565b61136a81610b12565b82525050565b6000606082019050818103600083015261138a81866112d6565b90506113996020830185611361565b81810360408301526113ab81846112d6565b9050949350505050565b600060408201905081810360008301526113cf81856112d6565b90506113de6020830184610ac8565b9392505050565b600060408201905081810360008301526113ff81856112d6565b905061140e6020830184611361565b939250505056fea2646970667358221220b31819f230477c855b28b7826cc06b99b92cf7ab5a298319e87f902bc209444064736f6c63430008110033",
  "linkReferences": {},
  "deployedLinkReferences": {}
}